:020000040800F2
:1000000000000120590E0008A10C0008A90C0008EE
:10001000B10C0008B90C0008C10C00080000000079
:100020000000000000000000000000005156000821
:10003000C90C000800000000A1580008892200082F
:10004000A90E0008A90E0008A90E0008A90E0008B4
:10005000A90E0008A90E0008A90E0008A90E0008A4
:10006000A90E0008A90E0008A90E0008A90E000894
:10007000A90E0008A90E0008A90E0008A90E000884
:10008000A90E0008A90E0008A90E00080000000033
:10009000000000000000000000000000A90E0008A1
:1000A000A90E0008D90C0008A90E0008A90E000826
:1000B000A90E0008A90E0008A90E0008A90E000844
:1000C000A90E0008A90E0008A90E0008A90E000834
:1000D000A90E0008A90E0008A90E000800000000E3
:1000E000A90E0008A90E0008A90E000800000000D3
:1000F000000000000000000000000000A90E000841
:1001000000000000A90E0008A90E0008A90E0008B2
:1001100000000000000000000000000000000000DF
:10012000A90E0008A90E0008A90E0008A90E0008D3
:10013000A90E000800000000000000000000000000
:10014000000000000000000000000000A90E0008F0
:10015000A90E0008A90E0008A90E0008A90E0008A3
:10016000A90E0008A90E0008000000000000000011
:10017000000000000000000000000000000000007F
:1001800000000000A90E00080000000000000000B0
:04019000A90E0008AC
:1001A00010B5054C237833B9044B13B10448AFF3B1
:1001B00000800123237010BD6C00002000000000AF
:1001C0002868000808B5034B1BB103490348AFF387
:1001D000008008BD000000007000002028680008B2
:1001E00053B94AB9002908BF00281CBF4FF0FF319E
:1001F0004FF0FF3000F06AB9ADF1080C6DE904CEA4
:1002000000F006F8DDF804E0DDE9022304B07047F1
:100210002DE9F047089D0C46002B4ED194468C45A5
:100220008646B2FA82F262D94AB1C2F12003914005
:1002300020FA03F30CFA02FC194300FA02FE4FEA1B
:100240001C471FFA8CF6B1FBF7F44FEA1E4307FB7D
:10025000141143EA014304FB06F199420AD91CEB4D
:10026000030304F1FF3080F01281994240F20F81C4
:10027000023C6344591A1FFA8EF3B1FBF7F007FBF7
:10028000101143EA014300FB06F69E420AD91CEB1B
:10029000030300F1FF3180F0FC809E4240F2F980C0
:1002A000634402389B1B40EA044000211DB1D34047
:1002B0000022C5E90032BDE8F0878B4205D90DB1B7
:1002C000C5E9000100210846F5E7B3FA83F10029EA
:1002D00046D1A34202D39042C0F0F080861A64EB6C
:1002E00003030120002DE6D0C5E90063E3E7002AFF
:1002F00040F09080A1EB0C044FEA1C481FFA8CF7E9
:100300000121B4FBF8F64FEA1E4308FB164443EA0A
:10031000044307FB06F0984208D91CEB030306F1DF
:10032000FF3402D2984200F2CD8026461C1A1FFAF2
:100330008EF3B4FBF8F008FB104443EA044300FBDF
:1003400007F79F4208D91CEB030300F1FF3402D2E8
:100350009F4200F2B0802046DB1B40EA0640A5E742
:10036000C1F120068B4022FA06F71F4320FA06FC53
:1003700004FA01F343EA0C03F44000FA01F8380CE4
:100380004FEA1349B4FBF0FE1FFA87FC00FB1E4442
:1003900049EA04440EFB0CF9A14502FA01F20AD91C
:1003A0003C190EF1FF3A80F08480A14540F2818033
:1003B000AEF1020E3C44A4EB09041FFA83F9B4FB2E
:1003C000F0F300FB134449EA044403FB0CFCA4458E
:1003D00007D93C1903F1FF3067D2A44565D9023B28
:1003E0003C4443EA0E40A0FB0293A4EB0C049C4265
:1003F000CE469C4651D34ED055B1B8EB0E0364EBBC
:100400000C0404FA06F6CB401E43CC40C5E9006458
:10041000002150E7C2F1200320FA03F10CFA02FC9C
:1004200024FA03F394400C434FEA1C4800FA02FEFE
:100430001FFA8CF7B3FBF8F008FB1031230C43EAEA
:10044000014300FB07F1994208D91CEB030300F1BB
:10045000FF362CD299422AD9023863445B1AA4B2DF
:10046000B3FBF8F108FB113344EA034401FB07F343
:10047000A34208D91CEB040401F1FF3613D2A342B6
:1004800011D902396444E41A41EA004139E70446CB
:10049000F0E6084606E7C845AED2B9EB020E63EBBC
:1004A000070C0138A8E73146EDE7034699E73046E7
:1004B000D4E7D6467FE7634402384DE70646234635
:1004C00008460FE7023E634430E700BF704700BFB5
:1004D00080B500AF00F0EAFC00F064F800F0C2F86C
:1004E00001F0ECFE1D4A0121012002F035F803461F
:1004F0001B4A13601B4A0221102002F04DF90346EB
:10050000194A1360194A0221102002F045F90346E6
:10051000174A1360174A0021174801F02EFF0346BF
:10052000164A1360164A0021164801F026FF0346BA
:10053000154A1360154A0021154801F01EFF0346B5
:10054000144A1360144A0021144801F016FF0346B0
:10055000134A136001F0D6FE00BFFDE7B069000842
:10056000A000002080690008980000209869000819
:100570009C000020F0680008610700088800002047
:10058000146900087D0800088C0000203869000804
:1005900079090008900000205C690008390A000809
:1005A0009400002080B594B000AF07F12003302202
:1005B0000021184605F020FE07F10C0300221A6006
:1005C0005A609A60DA601A610023BB60234B1B6C8F
:1005D000224A43F080531364204B1B6C03F080537A
:1005E000BB60BB6800237B601D4B1B6823F440434A
:1005F0001B4A43F400431360194B1B6803F4404348
:100600007B607B6802233B620123FB6210233B6318
:100610000023BB6307F12003184600F021FF0346C7
:10062000002B01D000F098FA0F23FB6000233B6100
:1006300000237B610023BB610023FB6107F10C03F6
:100640000021184601F084F90346002B01D000F088
:1006500083FA00BF5037BD4680BD00BF003802405E
:100660000070004080B588B000AF07F10C03002295
:100670001A605A609A60DA601A610023BB60354BD9
:100680001B6B344A43F080031363324B1B6B03F044
:100690008003BB60BB6800237B602E4B1B6B2D4A25
:1006A00043F0010313632B4B1B6B03F001037B60CF
:1006B0007B6800233B60274B1B6B264A43F00203F9
:1006C0001363244B1B6B03F002033B603B68002267
:1006D0003721214800F0AAFE002237211F4800F0F0
:1006E000A5FE3723FB6001233B6100237B610023D0
:1006F000BB6107F10C031946174800F0FBFC082307
:10070000FB6000233B6101237B6107F10C03194669
:10071000114800F0EFFC3723FB6001233B6100230D
:100720007B610023BB6107F10C0319460B4800F005
:10073000E1FC0823FB6000233B6101237B6107F19F
:100740000C031946054800F0D5FC00BF2037BD4614
:1007500080BD00BF0038024000000240000402409B
:1007600080B582B000AF7860414B1B684FF0FF311D
:10077000184601F07BFF0346002BF5D10122202112
:100780003C4800F053FE012220213B4800F04EFE81
:1007900001220121374800F049FE0022022135489C
:1007A00000F044FE00220421324800F03FFE012206
:1007B0000421314800F03AFE002201212E4800F0C9
:1007C00035FE002202212C4800F030FE4FF4FA5092
:1007D00001F0A7FE00220121264800F027FE012299
:1007E0000221244800F022FE00220421214800F0CA
:1007F0001DFE4FF4FA6001F094FE012204211D4811
:1008000000F014FE002201211A4800F00FFE002221
:100810000221184800F00AFE01220121164800F0CA
:1008200005FE00220221144800F000FE00220421EF
:10083000114800F0FBFD4FF4FA5001F072FE002267
:1008400001210D4800F0F2FD012202210A4800F0CA
:10085000EDFD00220421084800F0E8FD4FF4FA60A5
:1008600001F05FFE024B1B68184601F051FF7BE769
:10087000A0000020000002400004024080B584B0C7
:1008800000AF78600023FB81384B186807F10E0138
:100890004FF0FF33002202F053F80346002B60D1E3
:1008A000FB890A2B5DD1324B1B68184601F0F7FD1E
:1008B000012204212F4800F0B9FD002201212D481A
:1008C00000F0B4FD002202212A4800F0AFFD002212
:1008D0002021284800F0AAFD01221021254800F01F
:1008E000A5FD41F2883001F01CFE002210212148B4
:1008F00000F09CFD4FF47A7001F013FE01221021EC
:100900001C4800F093FD4FF47A7001F00AFE0022BB
:100910001021184800F08AFD4FF47A7001F001FEB2
:1009200001221021134800F081FD4FF47A7001F08C
:10093000F8FD002210210F4800F078FD4FF47A7086
:1009400001F0EFFD002210210A4800F06FFD0122A6
:100950002021084800F06AFD054B1B68184601F08D
:10096000BFFD642001F0DDFD8EE700BF9800002090
:10097000880000200000024080B586B000AF78609B
:1009800001F0E6FC786132233B610023FB81082102
:10099000244800F033FD0346002B1BD1386901F0D9
:1009A000C0FD01F0D5FC02467B69D31A3A699A4230
:1009B00010D81D4805F040FB0A23FB811B4B18682B
:1009C00007F10E014FF0FF33002201F059FF01F053
:1009D000BFFC78610821164800F010FD0346002B8B
:1009E0001BD1386901F09DFD01F0B2FC02467B6924
:1009F000D31A3A699A4210D80E4805F01DFB142309
:100A0000FB810A4B186807F10E014FF0FF330022FB
:100A100001F036FF01F09CFC78610A2001F081FDB5
:100A2000B5E700BF00000240A06800089800002061
:100A300000040240BC68000880B584B000AF786054
:100A40000023FB81384B186807F10E014FF0FF338C
:100A5000002201F075FF0346002B60D1FB89142BA7
:100A60005DD1324B1B68184601F019FD01220421AB
:100A70002F4800F0DBFC002201212D4800F0D6FCBD
:100A8000002202212A4800F0D1FC0022202128481F
:100A900000F0CCFC01221021254800F0C7FC41F2F7
:100AA000883001F03EFD00221021214800F0BEFCFC
:100AB0004FF47A7001F035FD012210211C4800F03E
:100AC000B5FC4FF47A7001F02CFD0022102118487B
:100AD00000F0ACFC4FF47A7001F023FD01221021EC
:100AE000134800F0A3FC4FF47A7001F01AFD0022C5
:100AF00010210F4800F09AFC4FF47A7001F011FDBC
:100B0000002210210A4800F091FC0122202108480F
:100B100000F08CFC054B1B68184601F0E1FC6420DA
:100B200001F0FFFC8EE700BF980000208800002045
:100B30000004024080B582B000AF78607B681B681B
:100B4000044A934201D100F0D3F900BF0837BD46F3
:100B500080BD00BF0000014080B400AF72B600BF8E
:100B600000BFFDE780B582B000AF00237B60124B71
:100B70005B6C114A43F4804353640F4B5B6C03F48A
:100B800080437B607B6800233B600B4B1B6C0A4AF5
:100B900043F080531364084B1B6C03F080533B609D
:100BA0003B6800220F216FF0010000F079FA00BFCE
:100BB0000837BD4680BD00BF0038024080B58CB00C
:100BC00000AF78600023BB6200237B620023BB6020
:100BD0002E4B5B6C2D4A43F0010353642B4B5B6C33
:100BE00003F00103BB60BB6807F10C0207F11003BF
:100BF0001146184601F078F801F062F8B862BB6A55
:100C0000234AA2FB03239B0C013B7B62214B224A1C
:100C10001A60204B40F2E732DA601E4A7B6A53606A
:100C20001C4B00221A611B4B00229A60194B0022B8
:100C30009A61184801F08AF8034687F82F3097F830
:100C40002F30002B1BD1134801F0DAF8034687F848
:100C50002F3097F82F30002B11D1192000F03CFADB
:100C60007B680F2B08D800227968192000F018FA49
:100C70000A4A7B68136002E0012387F82F3097F857
:100C80002F3018463037BD4680BD00BF00380240C7
:100C900083DE1B43A400002000000140040000206C
:100CA00080B400AF00BFFDE780B400AF00BFFDE738
:100CB00080B400AF00BFFDE780B400AF00BFFDE728
:100CC00080B400AF00BFFDE780B400AF00BFBD46F9
:100CD0005DF8047B7047000080B500AF024801F06A
:100CE000F1F800BF80BD00BFA400002080B586B031
:100CF00000AFF860B9607A6000237B610AE0AFF36F
:100D000000800146BB685A1CBA60CAB21A707B697F
:100D100001337B617A697B689A42F0DB7B68184615
:100D20001837BD4680BD80B586B000AFF860B960A9
:100D30007A6000237B6109E0BB685A1CBA601B78AB
:100D40001846AFF300807B6901337B617A697B6869
:100D50009A42F1DB7B6818461837BD4680BD80B4E7
:100D600083B000AF78604FF0FF3318460C37BD46B4
:100D70005DF8047B704780B483B000AF7860396061
:100D80003B684FF400525A60002318460C37BD46AA
:100D90005DF8047B704780B483B000AF78600123B6
:100DA00018460C37BD465DF8047B704780B485B0AB
:100DB00000AFF860B9607A60002318461437BD466A
:100DC0005DF8047B7047000080B586B000AF7860A6
:100DD000144A154BD31A7B617B693B61134B1B682B
:100DE000002B02D1114B124A1A60104B1A687B6813
:100DF00013443A699A4207D205F0A2FA03460C223C
:100E00001A604FF0FF3309E0084B1B68FB60074B8B
:100E10001A687B681344054A1360FB681846183744
:100E2000BD4680BD0000012000040000EC00002051
:100E3000284C002080B400AF064BD3F88830054A18
:100E400043F47003C2F8883000BFBD465DF8047BF0
:100E5000704700BF00ED00E0DFF834D0FFF7EAFF95
:100E60000C480D490D4A002302E0D458C450043305
:100E7000C4188C42F9D30A4A0A4C002301E01360DB
:100E80000432A242FBD305F061FAFFF721FB704761
:100E900000000120000000206C000020E86900082C
:100EA0006C000020284C0020FEE7000080B500AF59
:100EB0000E4B1B680D4A43F4007313600B4B1B6809
:100EC0000A4A43F480631360084B1B68074A43F4E3
:100ED00080731360032000F0D8F80F20FFF76EFE38
:100EE000FFF740FE0023184680BD00BF003C0240D3
:100EF00080B400AF064B1B781A46064B1B681344A0
:100F0000044A136000BFBD465DF8047B704700BF14
:100F100008000020F000002080B400AF034B1B68E5
:100F20001846BD465DF8047B704700BFF000002006
:100F300080B485B000AF78607B6803F00703FB6086
:100F40000C4BDB68BB60BA684FF6FF031340BB6015
:100F5000FB681A02BB68134343F0BF6343F40033DA
:100F6000BB60044ABB68D36000BF1437BD465DF860
:100F7000047B704700ED00E080B400AF044BDB68F9
:100F80001B0A03F007031846BD465DF8047B704753
:100F900000ED00E080B483B000AF0346FB7197F929
:100FA0000730002B0BDBFB7903F01F02074997F991
:100FB00007305B09012000FA02F241F8232000BF4C
:100FC0000C37BD465DF8047B704700BF00E100E0D0
:100FD00080B483B000AF03463960FB7197F90730E6
:100FE000002B0ADB3B68DAB20C4997F90730120193
:100FF000D2B20B4483F800230AE03B68DAB2084916
:10100000FB7903F00F03043B1201D2B20B441A76B2
:1010100000BF0C37BD465DF8047B704700E100E07F
:1010200000ED00E080B489B000AFF860B9607A608C
:10103000FB6803F00703FB61FB69C3F10703042BA3
:1010400028BF0423BB61FB690433062B02D9FB696B
:10105000033B00E000237B614FF0FF32BB6902FAE3
:1010600003F3DA43BB681A407B699A404FF0FF31C3
:101070007B6901FA03F3D9437B680B40134318469D
:101080002437BD465DF8047B704780B582B000AF61
:1010900078607868FFF74CFF00BF0837BD4680BD19
:1010A00080B586B000AF0346B9607A60FB73002359
:1010B0007B61FFF761FF78617A68B9687869FFF74B
:1010C000B1FF024697F90F3011461846FFF780FF2F
:1010D00000BF1837BD4680BD80B582B000AF034663
:1010E000FB7197F907301846FFF754FF00BF083728
:1010F000BD4680BD80B489B000AF78603960002300
:101100007B6100233B610023BB610023FB6159E14C
:101110000122FB6902FA03F37B613B681B687A6971
:1011200013403B613A697B699A4240F048813B68D1
:101130005B6803F00303012B05D03B685B6803F099
:101140000303022B30D17B689B68BB61FB695B00AA
:10115000032202FA03F3DB43BA691340BB613B6825
:10116000DA68FB695B0002FA03F3BA691343BB61F7
:101170007B68BA699A607B685B68BB610122FB6926
:1011800002FA03F3DB43BA691340BB613B685B6857
:101190001B0903F00102FB6902FA03F3BA69134366
:1011A000BB617B68BA695A603B685B6803F0030304
:1011B000032B17D07B68DB68BB61FB695B000322F4
:1011C00002FA03F3DB43BA691340BB613B689A68D8
:1011D000FB695B0002FA03F3BA691343BB617B68E6
:1011E000BA69DA603B685B6803F00303022B23D122
:1011F000FB69DA087B68083253F82230BB61FB696F
:1012000003F007039B000F2202FA03F3DB43BA69E2
:101210001340BB613B681A69FB6903F007039B003D
:1012200002FA03F3BA691343BB61FB69DA087B680E
:101230000832B96943F822107B681B68BB61FB69FF
:101240005B00032202FA03F3DB43BA691340BB617C
:101250003B685B6803F00302FB695B0002FA03F37F
:10126000BA691343BB617B68BA691A603B685B6803
:1012700003F44033002B00F0A2800023FB60574BA7
:101280005B6C564A43F480435364544B5B6C03F4E9
:101290008043FB60FB68524AFB699B08023352F8AB
:1012A0002330BB61FB6903F003039B000F2202FAAA
:1012B00003F3DB43BA691340BB617B68494A93423D
:1012C00019D07B68484A934213D07B68474A9342BF
:1012D0000DD07B68464A934207D07B68454A9342CB
:1012E00001D1042308E0072306E0032304E00223DE
:1012F00002E0012300E00023FA6902F003029200F9
:101300009340BA691343BB613549FB699B080233BB
:10131000BA6941F82320384B9B68BB613B69DB43CA
:10132000BA691340BB613B685B6803F48013002B10
:1013300003D0BA693B691343BB612F4ABB69936011
:101340002D4BDB68BB613B69DB43BA691340BB6172
:101350003B685B6803F40013002B03D0BA693B6958
:101360001343BB61244ABB69D360234B5B68BB61F9
:101370003B69DB43BA691340BB613B685B6803F4BC
:101380000033002B03D0BA693B691343BB611A4A8F
:10139000BB695360184B1B68BB613B69DB43BA698F
:1013A0001340BB613B685B6803F48033002B03D0C0
:1013B000BA693B691343BB610F4ABB691360FB69A0
:1013C0000133FB61FB690F2B7FF6A2AE00BF00BFAC
:1013D0002437BD465DF8047B704700BF00380240EB
:1013E00000380140000002400004024000080240B2
:1013F000000C024000100240003C014080B485B067
:1014000000AF78600B467B807B681A697B8813404D
:10141000002B02D00123FB7301E00023FB73FB7B55
:1014200018461437BD465DF8047B704780B483B01E
:1014300000AF78600B467B8013467B707B78002B77
:1014400003D07A887B689A6103E07B881A047B6802
:101450009A6100BF0C37BD465DF8047B7047000001
:1014600080B586B000AF78607B68002B01D1012386
:1014700067E27B681B6803F00103002B75D0884B83
:101480009B6803F00C03042B0CD0854B9B6803F086
:101490000C03082B12D1824B5B6803F48003B3F575
:1014A000800F0BD17E4B1B6803F40033002B5BD005
:1014B0007B685B68002B57D1012342E27B685B6845
:1014C000B3F5803F06D1764B1B68754A43F48033F1
:1014D00013601DE07B685B68B3F5A02F0CD1704BE7
:1014E0001B686F4A43F4802313606D4B1B686C4A82
:1014F00043F4803313600BE0694B1B68684A23F4A4
:1015000080331360664B1B68654A23F480231360A5
:101510007B685B68002B13D0FFF7FEFC386108E0A6
:10152000FFF7FAFC02463B69D31A642B01D9032367
:1015300007E25B4B1B6803F40033002BF0D014E090
:10154000FFF7EAFC386108E0FFF7E6FC02463B697A
:10155000D31A642B01D90323F3E1514B1B6803F425
:101560000033002BF0D100E000BF7B681B6803F064
:101570000203002B63D04A4B9B6803F00C03002B43
:101580000BD0474B9B6803F00C03082B1CD1444B3A
:101590005B6803F48003002B16D1414B1B6803F0FA
:1015A0000203002B05D07B68DB68012B01D00123EF
:1015B000C7E13B4B1B6823F0F8027B681B69DB002B
:1015C000374913430B603AE07B68DB68002B20D07F
:1015D000344B01221A60FFF79FFC386108E0FFF7E7
:1015E0009BFC02463B69D31A022B01D90323A8E1D5
:1015F0002B4B1B6803F00203002BF0D0284B1B6819
:1016000023F0F8027B681B69DB00254913430B605C
:1016100015E0244B00221A60FFF77EFC386108E0D9
:10162000FFF77AFC02463B69D31A022B01D9032348
:1016300087E11B4B1B6803F00203002BF0D17B6892
:101640001B6803F00803002B36D07B685B69002B16
:1016500016D0154B01221A60FFF75EFC386108E0D6
:10166000FFF75AFC02463B69D31A022B01D9032328
:1016700067E10B4B5B6F03F00203002BF0D01BE024
:10168000094B00221A60FFF747FC38610EE0FFF7B4
:1016900043FC02463B69D31A022B07D9032350E1CE
:1016A0000038024000004742800E4742884B5B6F83
:1016B00003F00203002BEAD17B681B6803F00403EC
:1016C000002B00F097800023FB75814B1B6C03F00F
:1016D0008053002B0FD10023BB607D4B1B6C7C4AD9
:1016E00043F0805313647A4B1B6C03F08053BB6050
:1016F000BB680123FB75774B1B6803F48073002BD9
:1017000018D1744B1B68734A43F480731360FFF75E
:1017100003FC386108E0FFF7FFFB02463B69D31A80
:10172000022B01D903230CE16A4B1B6803F480737D
:10173000002BF0D07B689B68012B06D1644B1B6F9C
:10174000634A43F0010313671CE07B689B68052B29
:101750000CD15F4B1B6F5E4A43F0040313675C4B75
:101760001B6F5B4A43F0010313670BE0584B1B6F81
:10177000574A23F001031367554B1B6F544A23F05C
:10178000040313677B689B68002B15D0FFF7C4FB2D
:1017900038610AE0FFF7C0FB02463B69D31A41F209
:1017A0008832934201D90323CBE0494B1B6F03F0EE
:1017B0000203002BEED014E0FFF7AEFB38610AE025
:1017C000FFF7AAFB02463B69D31A41F288329342E3
:1017D00001D90323B5E03E4B1B6F03F00203002B3E
:1017E000EED1FB7D012B05D1394B1B6C384A23F020
:1017F000805313647B689B69002B00F0A180344BFD
:101800009B6803F00C03082B5CD07B689B69022B60
:1018100041D1314B00221A60FFF77EFB386108E0AE
:10182000FFF77AFB02463B69D31A022B01D9032347
:1018300087E0274B1B6803F00073002BF0D17B6817
:10184000DA697B681B6A1A437B685B6A9B011A43EF
:101850007B689B6A5B08013B1B041A437B68DB6A5D
:101860001B061B4913434B601B4B01221A60FFF7F9
:1018700053FB386108E0FFF74FFB02463B69D31A80
:10188000022B01D903235CE0114B1B6803F00073AA
:10189000002BF0D054E0104B00221A60FFF73CFB05
:1018A000386108E0FFF738FB02463B69D31A022B88
:1018B00001D9032345E0064B1B6803F00073002B9E
:1018C000F0D13DE07B689B69012B07D1012338E013
:1018D0000038024000700040600047421B4B5B68CC
:1018E000FB607B689B69012B28D0FB6803F48002B6
:1018F0007B68DB699A4221D1FB6803F03F027B6879
:101900001B6A9A421AD1FA6847F6C07313407A6884
:10191000526A9201934211D1FB6803F440327B6812
:101920009B6A5B08013B1B049A4207D1FB6803F0EA
:1019300070627B68DB6A1B069A4201D0012300E0DB
:10194000002318461837BD4680BD00BF003802404E
:1019500080B584B000AF786039607B68002B01D11E
:101960000123CCE0684B1B6803F007033A689A42F6
:101970000CD9654B3A68D2B21A70634B1B6803F0FE
:1019800007033A689A4201D00123B8E07B681B68DC
:1019900003F00203002B20D07B681B6803F00403D4
:1019A000002B05D0594B9B68584A43F4E053936091
:1019B0007B681B6803F00803002B05D0534B9B6822
:1019C000524A43F460439360504B9B6823F0F0020B
:1019D0007B689B684D4913438B607B681B6803F0F1
:1019E0000103002B44D07B685B68012B07D1474B78
:1019F0001B6803F40033002B19D101237FE07B68BF
:101A00005B68022B03D07B685B68032B07D13F4BDD
:101A10001B6803F00073002B09D101236FE03B4BDF
:101A20001B6803F00203002B01D1012367E0374B51
:101A30009B6823F003027B685B68344913438B6027
:101A4000FFF76AFAF8600AE0FFF766FA0246FB68F9
:101A5000D31A41F28832934201D903234FE02B4B32
:101A60009B6803F00C027B685B689B009A42EBD199
:101A7000254B1B6803F007033A689A420CD2224BAD
:101A80003A68D2B21A70204B1B6803F007033A6819
:101A90009A4201D0012332E07B681B6803F0040303
:101AA000002B08D0194B9B6823F4E0527B68DB685D
:101AB000164913438B607B681B6803F00803002BF7
:101AC00009D0124B9B6823F460427B681B69DB00E2
:101AD0000E4913438B6000F021F802460B4B9B68C4
:101AE0001B0903F00F030A49CB5C22FA03F3094AEE
:101AF0001360094B1B681846FFF760F8002318466F
:101B00001037BD4680BD00BF003C02400038024097
:101B1000C069000800000020040000202DE9B04F3B
:101B200090B000AF00237B630023FB6300233B6383
:101B30000023BB63594B9B6803F00C03082B0DD0AB
:101B4000082B00F2A180002B02D0042B03D09BE0D5
:101B5000534BBB639BE0534BBB6398E04F4B5B68BD
:101B600003F03F037B634D4B5B6803F48003002B62
:101B700028D04A4B5B689B0900223B627A623B6A31
:101B8000C3F308000021474B03FB01F2002300FBD5
:101B900003F31344434AA0FB0212FA620A46BA62F4
:101BA000FA6A1344FB627B6B0022BB61FA61D7E9DE
:101BB0000623D7E90A01FEF713FB02460B4613463C
:101BC000FB6353E0354B5B689B0900223B617A6104
:101BD0003B69C3F3080A4FF0000B52465B464FF0D7
:101BE00000004FF00001590141EAD2615001024664
:101BF0000B46B2EB0A0863EB0B094FF000024FF003
:101C000000034FEA891343EA98634FEA8812B2EB64
:101C1000080463EB09054FF000024FF00003EB00EE
:101C200043EA5473E20014461D4614EB0A033B607A
:101C300045EB0B037B604FF000024FF00003D7E948
:101C4000004529468B02214643EA915321468A02E8
:101C5000104619467B6B0022BB60FA60D7E902236D
:101C6000FEF7BEFA02460B461346FB630B4B5B685E
:101C70001B0C03F0030301335B003B63FA6B3B6B0C
:101C8000B2FBF3F3BB6302E0054BBB6300BFBB6B6E
:101C900018464037BD46BDE8B08F00BF003802404F
:101CA0000024F40040787D0180B400AF034B1B6832
:101CB0001846BD465DF8047B704700BF0000002059
:101CC00080B500AFFFF7F0FF0246054B9B685B0B4A
:101CD00003F007030349CB5C22FA03F3184680BDE7
:101CE00000380240D069000880B483B000AF78604B
:101CF00039607B680F221A60124B9B6803F0030265
:101D00007B685A600F4B9B6803F0F0027B689A6017
:101D10000C4B9B6803F4E0527B68DA60094B9B68CC
:101D2000DB0803F4E0527B681A61074B1B6803F081
:101D300007023B681A6000BF0C37BD465DF8047BA4
:101D4000704700BF00380240003C024080B582B0BE
:101D500000AF78607B68002B01D1012341E07B68F4
:101D600093F83D30DBB2002B06D17B68002283F86C
:101D70003C20786800F039F87B68022283F83D2027
:101D80007B681A687B6804331946104600F0B2F984
:101D90007B68012283F846207B68012283F83E207D
:101DA0007B68012283F83F207B68012283F8402072
:101DB0007B68012283F841207B68012283F842205E
:101DC0007B68012283F843207B68012283F844204A
:101DD0007B68012283F845207B68012283F83D203F
:101DE000002318460837BD4680BD80B483B000AFDD
:101DF000786000BF0C37BD465DF8047B704700007B
:101E000080B485B000AF78607B6893F83D30DBB27A
:101E1000012B01D0012344E07B68022283F83D209E
:101E20007B681B68DA687B681B6842F00102DA6035
:101E30007B681B681E4A934218D07B681B68B3F10D
:101E4000804F13D07B681B681A4A93420ED07B6880
:101E50001B68194A934209D07B681B68174A934252
:101E600004D07B681B68164A934211D17B681B68BB
:101E70009B6803F00703FB60FB68062B10D07B68B0
:101E80001B681A687B681B6842F001021A6007E051
:101E90007B681B681A687B681B6842F001021A6045
:101EA000002318461437BD465DF8047B704700BF19
:101EB000000001400004004000080040000C004009
:101EC0000040014080B584B000AF78607B681B683B
:101ED000DB68FB607B681B681B69BB60BB6803F049
:101EE0000203002B20D0FB6803F00203002B1BD061
:101EF0007B681B686FF002021A617B6801221A7707
:101F00007B681B689B6903F00303002B03D0786890
:101F100000F0D2F805E0786800F0C4F8786800F0C6
:101F2000D5F87B6800221A77BB6803F00403002B06
:101F300020D0FB6803F00403002B1BD07B681B68D8
:101F40006FF004021A617B6802221A777B681B68B3
:101F50009B6903F44073002B03D0786800F0ACF861
:101F600005E0786800F09EF8786800F0AFF87B68CC
:101F700000221A77BB6803F00803002B20D0FB680F
:101F800003F00803002B1BD07B681B686FF008026E
:101F90001A617B6804221A777B681B68DB6903F08F
:101FA0000303002B03D0786800F086F805E078681A
:101FB00000F078F8786800F089F87B6800221A77DA
:101FC000BB6803F01003002B20D0FB6803F0100364
:101FD000002B1BD07B681B686FF010021A617B68B6
:101FE00008221A777B681B68DB6903F44073002BB7
:101FF00003D0786800F060F805E0786800F052F8E7
:10200000786800F063F87B6800221A77BB6803F0F9
:102010000103002B0CD0FB6803F00103002B07D059
:102020007B681B686FF001021A617868FEF782FD19
:10203000BB6803F08003002B0CD0FB6803F0800327
:10204000002B07D07B681B686FF080021A617868EC
:1020500000F0E6F8BB6803F04003002B0CD0FB68EF
:1020600003F04003002B07D07B681B686FF0400231
:102070001A61786800F034F8BB6803F02003002B85
:102080000CD0FB6803F02003002B07D07B681B6893
:102090006FF020021A61786800F0B8F800BF1037BE
:1020A000BD4680BD80B483B000AF786000BF0C3700
:1020B000BD465DF8047B704780B483B000AF7860A4
:1020C00000BF0C37BD465DF8047B704780B483B019
:1020D00000AF786000BF0C37BD465DF8047B7047E9
:1020E00080B483B000AF786000BF0C37BD465DF8A8
:1020F000047B704780B485B000AF786039607B683E
:102100001B68FB607B683A4A93420FD07B68B3F14F
:10211000804F0BD07B68374A934207D07B68364AA2
:10212000934203D07B68354A934208D1FB6823F081
:102130007003FB603B685B68FA681343FB607B6875
:102140002B4A93421BD07B68B3F1804F17D07B683A
:10215000284A934213D07B68274A93420FD07B686A
:10216000264A93420BD07B68254A934207D07B686E
:10217000244A934203D07B68234A934208D1FB68E8
:1021800023F44073FB603B68DB68FA681343FB6031
:10219000FB6823F080023B685B691343FB607B684C
:1021A000FA681A603B689A687B68DA623B681A686A
:1021B0007B689A627B680E4A934203D13B681A6936
:1021C0007B681A637B6801225A617B681B6903F094
:1021D0000103012B05D17B681B6923F001027B6899
:1021E0001A6100BF1437BD465DF8047B704700BF1D
:1021F000000001400004004000080040000C0040C6
:1022000000400140004401400048014080B483B0D8
:1022100000AF786000BF0C37BD465DF8047B7047A7
:1022200080B483B000AF786000BF0C37BD465DF866
:10223000047B704780B483B000AF03463960FB7104
:1022400097F90730002B0ADB3B68DAB20C4997F9A3
:1022500007301201D2B20B4483F800230AE03B6836
:10226000DAB20849FB7903F00F03043B1201D2B242
:102270000B441A7600BF0C37BD465DF8047B7047EF
:1022800000E100E000ED00E080B500AF054B1B6809
:1022900002F03AFC0346012B01D003F035FB00BFEE
:1022A00080BD00BF10E000E080B500AF00216FF0FE
:1022B0000400FFF7BFFF00BF80BD000080B483B003
:1022C00000AFEFF305833B603B68002B03D06FF05A
:1022D00005037B600CE00A4B1B68002B05D1084B03
:1022E00001221A6000237B6002E04FF0FF337B6025
:1022F0007B6818460C37BD465DF8047B704700BF0D
:10230000F400002080B582B000AFEFF305833B609E
:102310003B68002B03D06FF005037B6010E00B4B94
:102320001B68012B09D1FFF7BFFF084B02221A607F
:1023300001F074FF00237B6002E04FF0FF337B600D
:102340007B6818460837BD4680BD00BFF4000020FA
:1023500080B582B000AFEFF305833B603B68002B94
:1023600003D002F087F8786002E002F073F878603A
:102370007B6818460837BD4680BD80B58EB004AF77
:10238000F860B9607A6000233B61EFF305837B61FD
:102390007B69002B7ED1FB68002B7BD080233B62C6
:1023A0001823FB6100237B624FF0FF33BB617B6826
:1023B000002B45D07B681B68002B02D07B681B6814
:1023C0007B627B689B69002B02D07B689B69FB6109
:1023D000FB69002B08D0FB69382B05D87B685B684C
:1023E00003F00103002B01D0002354E07B685B69FC
:1023F000002B03D07B685B699B083B627B689B6812
:10240000002B0ED07B68DB68A72B0AD97B681B6981
:10241000002B06D07B685B69002B02D00123BB61D7
:1024200010E07B689B68002B0CD17B68DB68002B7D
:1024300008D17B681B69002B04D10023BB6101E03C
:102440000023BB61BB69012B10D17B681B697A68D3
:10245000926802920193FB690093BB683A6A796AB9
:10246000F86801F0DFFB03463B6113E0BB69002B1A
:1024700010D13B6A9AB207F110030193FB690093F4
:10248000BB68796AF86801F02DFC0346012B01D086
:1024900000233B613B6918462837BD4680BD80B5A7
:1024A00086B000AF78607B683B61EFF30583FB602B
:1024B000FB68002B03D06FF005037B610BE03B69E9
:1024C000002B03D16FF003037B6104E000237B61E9
:1024D000386901F09BFD7B6918461837BD4680BD01
:1024E00080B586B000AF78607B683B61EFF3058311
:1024F000FB60FB68002B03D06FF005037B610BE0F2
:102500003B69002B03D16FF003037B6104E00023E0
:102510007B61386901F022FE7B6918461837BD4699
:1025200080BD80B584B000AF7860EFF30583BB60F9
:10253000BB68002B03D06FF00503FB6007E00023AE
:10254000FB607B68002B02D0786801F029FDFB68F6
:1025500018461037BD4680BD80B58AB002AFF8601E
:10256000B9607A600023FB61EFF305833B613B694F
:10257000002B75D1FB68002B72D0BA68FB689A42B9
:102580006ED84FF0FF33BB617B68002B15D07B68A2
:102590009B68002B06D07B68DB684F2B02D9012398
:1025A000BB610CE07B689B68002B08D17B68DB6813
:1025B000002B04D10023BB6101E00023BB61BB6998
:1025C000B3F1FF3F4CD0FB68012B28D1BB69012B35
:1025D0000AD17B689B68032200920022002101201F
:1025E00000F05EFBF86105E003220021012000F00D
:1025F000D4FBF861FB69002B22D0BB68002B1FD0F5
:10260000002300220021F86900F094FC0346012B0E
:1026100016D0F86901F032F90023FB6110E0BB69C4
:10262000012B08D17B689B681A46B968F86800F0EE
:1026300012FCF86104E0B968F86800F045FCF86144
:10264000FB69002B0CD07B68002B03D07B681B68D8
:102650007B6101E000237B617969F86901F05AFA36
:10266000FB6918462037BD4680BD000080B586B0A6
:1026700000AF786039607B683B6100237B613B6918
:10268000002B03D16FF003037B6139E0EFF3058387
:10269000FB60FB68002B22D03B68002B03D06FF05F
:1026A00003037B612CE00023BB6007F108031A469B
:1026B0000021386901F060F80346012B03D06FF068
:1026C00002037B611CE0BB68002B19D00F4B4FF05D
:1026D00080521A60BFF34F8FBFF36F8F10E03968DD
:1026E000386900F039FF0346012B09D03B68002B05
:1026F00003D06FF001037B6102E06FF002037B61A6
:102700007B6918461837BD4680BD00BF04ED00E068
:1027100080B586B000AF78607B683B6100237B6149
:102720003B69002B03D16FF003037B612CE0EFF3D7
:102730000583FB60FB68002B1AD00023BB6007F108
:1027400008031946386900F095FD0346012B03D0B4
:102750006FF002037B6117E0BB68002B14D00D4BB8
:102760004FF080521A60BFF34F8FBFF36F8F0BE0B3
:10277000002300220021386900F0DCFB0346012B16
:1027800002D06FF002037B617B6918461837BD46A3
:1027900080BD00BF04ED00E080B58AB002AFF860F4
:1027A000B9607A600023FB61EFF305833B613B690D
:1027B000002B5FD1FB68002B5CD0BB68002B59D08D
:1027C0004FF0FF33BB617B68002B29D07B689B688F
:1027D000002B12D07B68DB684F2B0ED97B681B69FE
:1027E000002B0AD07B685A69FB68B96801FB03F3C8
:1027F0009A4202D30123BB6114E07B689B68002BE3
:1028000010D17B68DB68002B0CD17B681B69002B27
:1028100008D17B685B69002B04D10023BB6101E018
:102820000023BB61BB69012B0BD17B681A697B68F4
:102830009B6800210091B968F86800F031FAF861EE
:1028400008E0BB69002B05D10022B968F86800F0E8
:10285000A4FAF861FB69002B0CD07B68002B03D035
:102860007B681B687B6101E000237B617969F86903
:1028700001F050F9FB6918462037BD4680BD0000C5
:1028800080B588B000AFF860B9603B601346FB715B
:10289000FB68BB610023FB61EFF305837B617B6910
:1028A000002B28D0BB69002B05D0BB68002B02D0C1
:1028B0003B68002B03D06FF00303FB6138E000237B
:1028C0003B6107F110020023B968B86900F034FCDD
:1028D0000346012B03D06FF00203FB6128E03B6944
:1028E000002B25D0154B4FF080521A60BFF34F8F4D
:1028F000BFF36F8F1CE0BB69002B02D0BB68002BBD
:1029000003D16FF00303FB6112E000233A68B9685A
:10291000B86900F00FFB0346012B09D03B68002B80
:1029200003D06FF00103FB6102E06FF00203FB6173
:10293000FB6918462037BD4680BD00BF04ED00E0AE
:1029400080B588B000AFF860B9607A603B60FB6822
:10295000BB610023FB61EFF305837B617B69002B87
:1029600028D0BB69002B05D0BB68002B02D03B6888
:10297000002B03D06FF00303FB6137E000233B61C2
:1029800007F110031A46B968B86900F0F5FE03466E
:10299000012B03D06FF00203FB6127E03B69002BA2
:1029A00024D0154B4FF080521A60BFF34F8FBFF306
:1029B0006F8F1BE0BB69002B02D0BB68002B03D1DB
:1029C0006FF00303FB6111E03A68B968B86900F081
:1029D000E1FC0346012B09D03B68002B03D06FF0CC
:1029E0000103FB6102E06FF00203FB61FB69184623
:1029F0002037BD4680BD00BF04ED00E080B485B047
:102A000000AFF860B9607A60FB68074A1A60BB687B
:102A1000064A1A607B6880221A6000BF1437BD46E0
:102A20005DF8047B704700BFF8000020A001002083
:102A300080B485B000AFF860B9607A60FB68074A7F
:102A40001A60BB68064A1A607B684FF480721A608D
:102A500000BF1437BD465DF8047B7047A00300201B
:102A60004804002080B483B000AF78607B6803F135
:102A700008027B685A607B684FF0FF329A607B687F
:102A800003F108027B68DA607B6803F108027B6867
:102A90001A617B6800221A6000BF0C37BD465DF8E2
:102AA000047B704780B483B000AF78607B680022FD
:102AB0001A6100BF0C37BD465DF8047B704780B4D7
:102AC00085B000AF786039607B685B68FB603B680D
:102AD000FA685A60FB689A683B689A60FB689B6872
:102AE0003A685A60FB683A689A603B687A681A618B
:102AF0007B681B685A1C7B681A6000BF1437BD4690
:102B00005DF8047B704780B485B000AF78603960B1
:102B10003B681B68BB60BB68B3F1FF3F03D17B68B8
:102B20001B69FB600CE07B680833FB6002E0FB681C
:102B30005B68FB60FB685B681B68BA689A42F6D208
:102B4000FB685A683B685A603B685B683A689A6001
:102B50003B68FA689A60FB683A685A603B687A6832
:102B60001A617B681B685A1C7B681A6000BF1437A7
:102B7000BD465DF8047B704780B485B000AF7860D7
:102B80007B681B69FB607B685B687A6892689A6007
:102B90007B689B687A6852685A60FB685B687A68F1
:102BA0009A4203D17B689A68FB685A607B6800226E
:102BB0001A61FB681B685A1EFB681A60FB681B6879
:102BC00018461437BD465DF8047B704780B584B065
:102BD00000AF786039607B68FB60FB68002B0BD12D
:102BE0004FF0500383F31188BFF36F8FBFF34F8F04
:102BF000BB6000BF00BFFDE702F0F6FDFB681A688E
:102C0000FB68DB6BF968096C01FB03F31A44FB6892
:102C10009A60FB6800229A63FB681A68FB685A6036
:102C2000FB681A68FB68DB6B013BF968096C01FB08
:102C300003F31A44FB68DA60FB68FF2283F8442040
:102C4000FB68FF2283F845203B68002B14D1FB680A
:102C50001B69002B1AD0FB681033184601F08EFD5B
:102C60000346002B12D00D4B4FF080521A60BFF379
:102C70004F8FBFF36F8F09E0FB6810331846FFF7E3
:102C8000F1FEFB6824331846FFF7ECFE02F0DEFD90
:102C9000012318461037BD4680BD00BF04ED00E09B
:102CA00080B58EB002AFF860B9607A603B60FB68B7
:102CB000002B0BD14FF0500383F31188BFF36F8FBC
:102CC000BFF34F8FBB6200BF00BFFDE73B68002B27
:102CD0000BD14FF0500383F31188BFF36F8FBFF315
:102CE0004F8F7B6200BF00BFFDE77B68002B02D0E7
:102CF000BB68002B01D0012300E00023002B0BD187
:102D00004FF0500383F31188BFF36F8FBFF34F8FE2
:102D10003B6200BF00BFFDE77B68002B02D1BB68B0
:102D2000002B01D1012300E00023002B0BD14FF039
:102D3000500383F31188BFF36F8FBFF34F8FFB6195
:102D400000BF00BFFDE750237B617B69502B0BD098
:102D50004FF0500383F31188BFF36F8FBFF34F8F92
:102D6000BB6100BF00BFFDE77B693B68FB62FB6A9C
:102D7000002B0DD0FB6A012283F8462097F83820FB
:102D8000FB6A009313467A68B968F86800F040F867
:102D9000FB6A18463037BD4680BD80B58AB002AFA9
:102DA000F860B9601346FB71FB68002B0BD14FF044
:102DB000500383F31188BFF36F8FBFF34F8F3B61D5
:102DC00000BF00BFFDE7FB68BA6802FB03F3FB61CD
:102DD000FB695033184602F029FEB861BB69002B2D
:102DE00011D0BB697B617B6950337B61BB69002279
:102DF00083F84620FA79BB69009313467A69B9686B
:102E0000F86800F005F8BB6918462037BD4680BD5C
:102E100080B584B000AFF860B9607A60FB70BB68C1
:102E2000002B03D1BB69BA691A6002E0BB697A68FA
:102E30001A60BB69FA68DA63BB69BA681A6401216F
:102E4000B869FFF7C3FEBB69FA7883F84C2000BF6E
:102E50001037BD4680BD80B58AB002AFF860B9605A
:102E60007A60FB68002B0BD14FF0500383F311887D
:102E7000BFF36F8FBFF34F8FBB6100BF00BFFDE794
:102E8000BA68FB689A420BD94FF0500383F311885C
:102E9000BFF36F8FBFF34F8F7B6100BF00BFFDE7B4
:102EA000022300937B6800220021F868FFF7F8FEF8
:102EB000F861FB69002B02D0FB69BA689A63FB6971
:102EC00018462037BD4680BD80B586B000AF78601B
:102ED00039607B68002B0BD14FF0500383F31188CE
:102EE000BFF36F8FBFF34F8F3B6100BF00BFFDE7A4
:102EF0003A687B689A420BD94FF0500383F31188EC
:102F0000BFF36F8FBFF34F8FFB6000BF00BFFDE7C4
:102F1000022200217868FFF740FF78617B69002B6F
:102F200002D07B693A689A637B6918461837BD46B8
:102F300080BD000080B58EB000AFF860B9607A60E7
:102F40003B6000237B63FB683B633B6B002B0BD137
:102F50004FF0500383F31188BFF36F8FBFF34F8F90
:102F6000BB6200BF00BFFDE7BB68002B03D13B6B1A
:102F70001B6C002B01D1012300E00023002B0BD19F
:102F80004FF0500383F31188BFF36F8FBFF34F8F60
:102F90007B6200BF00BFFDE73B68022B03D13B6BA8
:102FA000DB6B012B01D1012300E00023002B0BD1AF
:102FB0004FF0500383F31188BFF36F8FBFF34F8F30
:102FC0003B6200BF00BFFDE701F09EFD0346002B02
:102FD00002D17B68002B01D1012300E00023002BEC
:102FE0000BD14FF0500383F31188BFF36F8FBFF302
:102FF0004F8FFB6100BF00BFFDE702F0F5FB3B6BAD
:103000009A6B3B6BDB6B9A4202D33B68022B29D154
:103010003A68B968386B00F06DFCF8623B6B5B6A2C
:10302000002B10D03B6B2433184601F0A7FB03465E
:10303000002B13D03F4B4FF080521A60BFF34F8FDD
:10304000BFF36F8F0AE0FB6A002B07D0394B4FF0BC
:1030500080521A60BFF34F8FBFF36F8F02F0F6FB01
:10306000012363E07B68002B03D102F0EFFB002318
:103070005CE07B6B002B06D107F11403184601F0CE
:10308000E1FB01237B6302F0E1FB01F037F902F081
:10309000ABFB3B6B93F844305BB2B3F1FF3F03D122
:1030A0003B6B002283F844203B6B93F845305BB2C6
:1030B000B3F1FF3F03D13B6B002283F8452002F0C0
:1030C000C5FB3A1D07F114031146184601F0D0FB69
:1030D0000346002B24D1386B00F004FD0346002B7F
:1030E00018D03B6B10337A681146184601F0F4FA99
:1030F000386B00F08FFC01F00FF90346002B7FF4D2
:103100007CAF0C4B4FF080521A60BFF34F8FBFF370
:103110006F8F72E7386B00F07DFC01F0FDF86CE713
:10312000386B00F077FC01F0F7F8002318463837C9
:10313000BD4680BD04ED00E080B590B000AFF86002
:10314000B9607A603B60FB68BB63BB6B002B0BD143
:103150004FF0500383F31188BFF36F8FBFF34F8F8E
:10316000BB6200BF00BFFDE7BB68002B03D1BB6B98
:103170001B6C002B01D1012300E00023002B0BD19D
:103180004FF0500383F31188BFF36F8FBFF34F8F5E
:103190007B6200BF00BFFDE73B68022B03D1BB6B26
:1031A000DB6B012B01D1012300E00023002B0BD1AD
:1031B0004FF0500383F31188BFF36F8FBFF34F8F2E
:1031C0003B6200BF00BFFDE702F0EEFBEFF31182B0
:1031D0004FF0500383F31188BFF36F8FBFF34F8F0E
:1031E000FA61BB61FB697B63BB6B9A6BBB6BDB6B8F
:1031F0009A4202D33B68022B2FD1BB6B93F8453028
:1032000087F83330BB6B9B6BFB623A68B968B86B6D
:1032100000F070FB97F93330B3F1FF3F12D1BB6B75
:103220005B6A002B16D0BB6B2433184601F0A6FA5C
:103230000346002B0ED07B68002B0BD07B6801224D
:103240001A6007E097F833300133DBB25AB2BB6B38
:1032500083F845200123FB6301E00023FB637B6BC4
:103260007B617B6983F3118800BFFB6B1846403795
:10327000BD4680BD80B58EB000AF786039607B6898
:103280003B633B6B002B0BD14FF0500383F3118852
:10329000BFF36F8FBFF34F8F3B6200BF00BFFDE7EF
:1032A0003B6B1B6C002B0BD04FF0500383F311884A
:1032B000BFF36F8FBFF34F8FFB6100BF00BFFDE710
:1032C0003B6B1B68002B03D13B6B9B68002B01D130
:1032D000012300E00023002B0BD14FF0500383F3B8
:1032E0001188BFF36F8FBFF34F8FBB6100BF00BF6B
:1032F000FDE702F059FBEFF311824FF0500383F327
:103300001188BFF36F8FBFF34F8F7A613B617B6989
:10331000FB623B6B9B6BBB623B6BDB6BBA6A9A429B
:103320002BD23B6B93F8453087F82730BB6A5A1C89
:103330003B6B9A6397F92730B3F1FF3F12D13B6B98
:103340005B6A002B16D03B6B2433184601F016FA4B
:103350000346002B0ED03B68002B0BD03B680122AC
:103360001A6007E097F827300133DBB25AB23B6BA3
:1033700083F8452001237B6301E000237B63FB6A24
:10338000FB60FB6883F3118800BF7B6B18463837FE
:10339000BD4680BD80B58CB000AFF860B9607A6082
:1033A0000023FB62FB68BB62BB6A002B0BD14FF0B2
:1033B000500383F31188BFF36F8FBFF34F8F3B62CE
:1033C00000BF00BFFDE7BB68002B03D1BB6A1B6CCD
:1033D000002B01D1012300E00023002B0BD14FF083
:1033E000500383F31188BFF36F8FBFF34F8FFB61DF
:1033F00000BF00BFFDE701F087FB0346002B02D1B1
:103400007B68002B01D1012300E00023002B0BD1AE
:103410004FF0500383F31188BFF36F8FBFF34F8FCB
:10342000BB6100BF00BFFDE702F0DEF9BB6A9B6B2A
:103430007B627B6A002B1FD0B968B86A00F0C4FABF
:103440007B6A5A1EBB6A9A63BB6A1B69002B0FD04A
:10345000BB6A1033184601F091F90346002B07D0E0
:103460003C4B4FF080521A60BFF34F8FBFF36F8F0A
:1034700002F0ECF9012369E07B68002B03D102F034
:10348000E5F9002362E0FB6A002B06D107F1100387
:10349000184601F0D7F90123FB6202F0D7F900F0DA
:1034A0002DFF02F0A1F9BB6A93F844305BB2B3F18F
:1034B000FF3F03D1BB6A002283F84420BB6A93F824
:1034C00045305BB2B3F1FF3F03D1BB6A002283F802
:1034D000452002F0BBF93A1D07F1100311461846CA
:1034E00001F0C6F90346002B23D1B86A00F0E4FAD4
:1034F0000346002B17D0BB6A24337A68114618465E
:1035000001F0EAF8B86A00F085FA00F005FF03461A
:10351000002B89D10F4B4FF080521A60BFF34F8FB1
:10352000BFF36F8F80E7B86A00F074FA00F0F4FE22
:103530007AE7B86A00F06EFA00F0EEFEB86A00F0C2
:10354000BBFA0346002B3FF46FAF00231846303719
:10355000BD4680BD04ED00E080B58EB000AF786060
:10356000396000237B637B68FB6200233B63FB6A5B
:10357000002B0BD14FF0500383F31188BFF36F8FF3
:10358000BFF34F8F3B6200BF00BFFDE7FB6A1B6CC0
:10359000002B0BD04FF0500383F31188BFF36F8FD4
:1035A000BFF34F8FFB6100BF00BFFDE701F0ACFA36
:1035B0000346002B02D13B68002B01D1012300E020
:1035C0000023002B0BD14FF0500383F31188BFF37E
:1035D0006F8FBFF34F8FBB6100BF00BFFDE702F0ED
:1035E00003F9FB6A9B6BBB62BB6A002B24D0BB6AEE
:1035F0005A1EFB6A9A63FB6A1B68002B04D101F018
:10360000FDFB0246FB6A9A60FB6A1B69002B0FD028
:10361000FB6A1033184601F0B1F80346002B07D0BF
:10362000544B4FF080521A60BFF34F8FBFF36F8F30
:1036300002F00CF9012398E03B68002B12D13B6BA0
:10364000002B0BD04FF0500383F31188BFF36F8F23
:10365000BFF34F8F7B6100BF00BFFDE702F0F6F8BC
:10366000002382E07B6B002B06D107F10C03184688
:1036700001F0E8F801237B6302F0E8F800F03EFE79
:1036800002F0B2F8FB6A93F844305BB2B3F1FF3F4B
:1036900003D1FB6A002283F84420FB6A93F845308B
:1036A0005BB2B3F1FF3F03D1FB6A002283F84520F0
:1036B00002F0CCF83A4607F10C031146184601F027
:1036C000D7F80346002B32D1F86A00F0F5F903462B
:1036D000002B26D0FB6A1B68002B09D102F084F86E
:1036E000FB6A9B68184601F02DFA386302F0AEF8C9
:1036F000FB6A24333A681146184600F0EDFFF86A79
:1037000000F088F900F008FE0346002B7FF467AF55
:10371000184B4FF080521A60BFF34F8FBFF36F8F7B
:103720005DE7F86A00F076F900F0F6FD57E7F86A11
:1037300000F070F900F0F0FDF86A00F0BDF9034602
:10374000002B3FF44CAF3B6B002B0DD002F04CF83C
:10375000F86A00F0B7F87862FB6A9B68796A1846E5
:1037600001F0C8FA02F072F8002318463837BD4657
:1037700080BD00BF04ED00E080B58EB000AFF86002
:10378000B9607A60FB683B633B6B002B0BD14FF059
:10379000500383F31188BFF36F8FBFF34F8F3B62EA
:1037A00000BF00BFFDE7BB68002B03D13B6B1B6C68
:1037B000002B01D1012300E00023002B0BD14FF09F
:1037C000500383F31188BFF36F8FBFF34F8FFB61FB
:1037D00000BF00BFFDE702F0E7F8EFF311824FF002
:1037E000500383F31188BFF36F8FBFF34F8FBA611C
:1037F0007B61BB69FB623B6B9B6BBB62BB6A002B53
:103800002FD03B6B93F8443087F82730B968386B7A
:1038100000F0DAF8BB6A5A1E3B6B9A6397F92730BF
:10382000B3F1FF3F12D13B6B1B69002B16D03B6BF2
:103830001033184600F0A2FF0346002B0ED07B6821
:10384000002B0BD07B6801221A6007E097F8273025
:103850000133DBB25AB23B6B83F8442001237B6314
:1038600001E000237B63FB6A3B613B6983F31188C2
:1038700000BF7B6B18463837BD4680BD80B584B02D
:1038800000AF78607B68FB60FB68002B0BD14FF0CA
:10389000500383F31188BFF36F8FBFF34F8FBB606B
:1038A00000BF00BFFDE7F86800F05EF9FB6893F821
:1038B0004630002B02D1F86802F086F900BF1037BD
:1038C000BD4680BD80B485B000AF78607B685B6A20
:1038D000002B06D07B681B6B1B68C3F13803FB60B1
:1038E00001E00023FB60FB6818461437BD465DF815
:1038F000047B704780B586B000AFF860B9607A602D
:1039000000237B61FB689B6B3B61FB681B6C002B9E
:103910000DD1FB681B68002B4DD1FB689B681846D6
:1039200001F078F97861FB6800229A6043E07B68D7
:10393000002B19D1FB685868FB681B6C1A46B968E4
:1039400002F02BFDFB685A68FB681B6C1A44FB688D
:103950005A60FB685A68FB689B689A422BD3FB68E5
:103960001A68FB685A6026E0FB68D868FB681B6C25
:103970001A46B96802F011FDFB68DA68FB681B6C37
:103980005B421A44FB68DA60FB68DA68FB681B6814
:103990009A4207D2FB689A68FB681B6C5B421A4428
:1039A000FB68DA607B68022B05D13B69002B02D0F3
:1039B0003B69013B3B613B695A1CFB689A637B692D
:1039C00018461837BD4680BD80B582B000AF78601C
:1039D00039607B681B6C002B18D07B68DA687B68C9
:1039E0001B6C1A447B68DA607B68DA687B689B68CA
:1039F0009A4203D37B681A687B68DA607B68D9686F
:103A00007B681B6C1A46386802F0C7FC00BF083799
:103A1000BD4680BD80B584B000AF786001F0E4FEA3
:103A20007B6893F84530FB7311E07B685B6A002B81
:103A300012D07B682433184600F0A0FE0346002B0A
:103A400001D000F079FFFB7B013BDBB2FB7397F900
:103A50000F30002BE9DC00E000BF7B68FF2283F819
:103A6000452001F0F3FE01F0BFFE7B6893F844307F
:103A7000BB7311E07B681B69002B12D07B6810338D
:103A8000184600F07BFE0346002B01D000F054FFE7
:103A9000BB7B013BDBB2BB7397F90E30002BE9DC3B
:103AA00000E000BF7B68FF2283F8442001F0CEFED7
:103AB00000BF1037BD4680BD80B584B000AF7860D0
:103AC00001F092FE7B689B6B002B02D10123FB600F
:103AD00001E00023FB6001F0B9FEFB6818461037D7
:103AE000BD4680BD80B584B000AF786001F07CFE3B
:103AF0007B689A6B7B68DB6B9A4202D10123FB6087
:103B000001E00023FB6001F0A1FEFB6818461037BE
:103B1000BD4680BD80B485B000AF786039600023B9
:103B2000FB6014E00F4AFB6852F83330002B0BD1D6
:103B30000C49FB683A6841F833200A4AFB68DB000D
:103B400013447A685A6006E0FB680133FB60FB6847
:103B5000072BE7D900BF00BF1437BD465DF8047BD3
:103B6000704700BF4808002080B485B000AF78607F
:103B70000023FB6016E0104AFB68DB0013445B681F
:103B80007A689A420BD10C4AFB68002142F8331044
:103B9000094AFB68DB00134400225A6006E0FB6818
:103BA0000133FB60FB68072BE5D900BF00BF14376A
:103BB000BD465DF8047B70474808002080B586B09C
:103BC00000AFF860B9607A60FB687B6101F00CFEC1
:103BD0007B6993F844305BB2B3F1FF3F03D17B695B
:103BE000002283F844207B6993F845305BB2B3F13F
:103BF000FF3F03D17B69002283F8452001F026FEB8
:103C00007B699B6B002B06D17B6924337A68B9688A
:103C1000184600F087FD7869FFF7FCFE00BF1837F3
:103C2000BD4680BD80B58EB004AFF860B9607A60E3
:103C30003B607B6B002B0BD14FF0500383F311885B
:103C4000BFF36F8FBFF34F8F3B6200BF00BFFDE735
:103C5000BB6B002B0BD14FF0500383F31188BFF3E4
:103C60006F8FBFF34F8FFB6100BF00BFFDE7A8233D
:103C70003B613B69A82B0BD04FF0500383F31188B5
:103C8000BFF36F8FBFF34F8FBB6100BF00BFFDE776
:103C90003B69BB6B002B1ED07B6B002B1BD0BB6B1F
:103CA0007B627B6A7A6B1A637B6A022283F8A520A7
:103CB000002303937B6A029307F1140301933B6B88
:103CC00000933B687A68B968F86800F051F8786A40
:103CD00000F0F6F801E000237B617B691846283785
:103CE000BD4680BD80B58CB004AFF860B9603B6064
:103CF0001346FB80FB889B00184601F097FE786115
:103D00007B69002B0ED0A82001F090FEF861FB69C2
:103D1000002B03D0FB697A691A6305E0786901F02A
:103D200053FF01E00023FB61FB69002B17D0FB6907
:103D3000002283F8A520FA8800230393FB690293ED
:103D4000FB6A0193BB6A00933B68B968F86800F0AE
:103D50000FF8F86900F0B4F80123BB6102E04FF0FE
:103D6000FF33BB61BB6918462037BD4680BD0000EC
:103D700080B588B000AFF860B9607A603B603B6B9B
:103D8000186B7B689B001A46A52102F035FA3B6B45
:103D90001A6B7B6803F18043013B9B001344BB61BA
:103DA000BB6923F00703BB61BB6903F00703002B6A
:103DB0000BD04FF0500383F31188BFF36F8FBFF325
:103DC0004F8F7B6100BF00BFFDE7BB68002B1FD09A
:103DD0000023FB6112E0BA68FB69134419783A6B5F
:103DE000FB69134434330A461A70BA68FB691344FA
:103DF0001B78002B06D0FB690133FB61FB690F2B9D
:103E0000E9D900E000BF3B6B002283F8432003E0C8
:103E10003B6B002283F83420BB6A372B01D9372350
:103E2000BB623B6BBA6ADA623B6BBA6ADA643B6BC1
:103E300000221A653B6B04331846FEF733FE3B6BDA
:103E400018331846FEF72EFE3B6B3A6B1A61BB6ABD
:103E5000C3F138023B6B9A613B6B3A6B5A623B6B26
:103E60000022C3F8A0203B6B002283F8A4203B6B08
:103E700054334C220021184602F0BEF93B6B0D4A28
:103E80009A653B6B0C4ADA653B6B0C4A1A663A68DA
:103E9000F968B86901F074FB02463B6B1A60FB6A73
:103EA000002B02D0FB6A3A6B1A6000BF2037BD4678
:103EB00080BD00BFDC4A0020444B0020AC4B0020FA
:103EC00080B582B000AF786001F08EFC2D4B1B688E
:103ED00001332C4A13602C4B1B68002B09D12A4A52
:103EE0007B681360274B1B68012B10D100F048FD45
:103EF0000DE0264B1B68002B09D1234B1B68DA6AA7
:103F00007B68DB6A9A4202D81F4A7B681360204BA9
:103F10001B6801331E4A13601D4B1A687B685A6484
:103F20007B68DA6A1B4B1B689A4203D97B68DB6AA1
:103F3000184A13607B68DA6A13469B0013449B009F
:103F4000154A1A447B68043319461046FEF7B7FD3C
:103F500001F07CFC0D4B1B68002B0ED00A4B1B683C
:103F6000DA6A7B68DB6A9A4207D20C4B4FF08052C8
:103F70001A60BFF34F8FBFF36F8F00BF0837BD4686
:103F800080BD00BF5C0D002088080020680D002067
:103F9000780D0020640D00208C08002004ED00E066
:103FA00080B584B000AF78600023FB607B68002B95
:103FB00018D0144B1B68002B0BD04FF0500383F329
:103FC0001188BFF36F8FBFF34F8FBB6000BF00BF7F
:103FD000FDE700F093F90021786800F023FF00F07E
:103FE0009BF9F860FB68002B07D1074B4FF080521C
:103FF0001A60BFF34F8FBFF36F8F00BF1037BD46FE
:1040000080BD00BF840D002004ED00E080B584B0C9
:1040100000AF786001F0E8FB7B68002B02D1304BE9
:104020001B6800E07B68FB60FB6804331846FEF702
:10403000A3FDFB689B6A002B04D0FB68183318466D
:10404000FEF79AFDFB68043319462648FEF737FD54
:10405000FB6893F8A430DBB2012B03D1FB6800228C
:1040600083F8A42001F0F2FB1F4B1B68002B05D046
:1040700001F0BAFB00F028FD01F0E8FB184B1B68CB
:10408000FA689A4228D1184B1B68002B18D0174B9E
:104090001B68002B0BD04FF0500383F31188BFF344
:1040A0006F8FBFF34F8FBB6000BF00BFFDE7104BAA
:1040B0004FF080521A60BFF34F8FBFF36F8F0BE04A
:1040C000084B1A680B4B1B689A4203D1044B002221
:1040D0001A6001E000F09AFA00BF1037BD4680BDBB
:1040E00088080020480D0020680D0020840D002065
:1040F00004ED00E05C0D002080B487B000AF786074
:1041000000237B617B683B617B68002B0BD14FF008
:10411000500383F31188BFF36F8FBFF34F8FFB60A2
:1041200000BF00BFFDE73B695B690A4A93420AD1C1
:104130003B699B6A084A934205D03B699B6A002B06
:1041400001D101237B617B6918461C37BD465DF8B0
:10415000047B7047480D00201C0D002080B584B002
:1041600000AF78607B68FB607B68002B0BD14FF061
:10417000500383F31188BFF36F8FBFF34F8FBB6082
:1041800000BF00BFFDE7214B1B68FA689A4238D098
:10419000FB68002B35D001F027FBF868FFF7ACFF78
:1041A0000346002B2BD0FB6804331846FEF7E4FCD3
:1041B000FB68DA6A164B1B689A4203D9FB68DB6A14
:1041C000134A1360FB68DA6A13469B0013449B0092
:1041D000104A1A44FB68043319461046FEF76FFC78
:1041E000FB68DA6A094B1B68DB6A9A4207D30A4B01
:1041F0004FF080521A60BFF34F8FBFF36F8F01F003
:1042000025FB00BF1037BD4680BD00BF88080020D9
:10421000640D00208C08002004ED00E080B58AB019
:1042200004AF0023BB6000237B603A46391D07F1D1
:1042300008031846FEF7E2FB39687B68BA68029209
:1042400001930023009300230A4624492448FFF7E2
:10425000E9FC0346234A1360224B1B68002B02D063
:1042600001237B6101E000237B617B69012B02D18B
:1042700000F02CFE78617B69012B1BD14FF05003BD
:1042800083F31188BFF36F8FBFF34F8F3B6100BF84
:10429000154B1B685433154A1360154B4FF0FF3212
:1042A0001A60144B01221A60134B00221A6001F0AD
:1042B000F7F90FE07B69B3F1FF3F0BD14FF05003EB
:1042C00083F31188BFF36F8FBFF34F8FFB6000BF85
:1042D00000BFFDE700BF1837BD4680BDD8680008A5
:1042E00051490008800D0020880800201C00002093
:1042F0007C0D0020680D0020600D002080B400AF10
:10430000044B1B680133034A136000BFBD465DF8D0
:10431000047B7047840D002080B584B000AF00237B
:10432000FB600023BB60424B1B68002B0BD14FF09E
:10433000500383F31188BFF36F8FBFF34F8F3B6040
:1043400000BF00BFFDE701F04FFA394B1B68013B8E
:10435000374A1360364B1B68002B62D1354B1B6804
:10436000002B5ED02FE0344BDB68DB68FB60FB6822
:1043700018331846FEF700FCFB6804331846FEF7B6
:10438000FBFBFB68DA6A2D4B1B689A4203D9FB687A
:10439000DB6A2A4A1360FB68DA6A13469B001344FF
:1043A0009B00274A1A44FB68043319461046FEF75F
:1043B00086FBFB68DA6A234B1B68DB6A9A4202D3EE
:1043C000214B01221A601C4B1B68002BCBD1FB68D0
:1043D000002B01D000F078FB1C4B1B687B607B68D6
:1043E000002B10D000F058F80346002B02D0164BDB
:1043F00001221A607B68013B7B607B68002BF1D156
:10440000124B00221A60104B1B68002B09D00123AD
:10441000BB600F4B4FF080521A60BFF34F8FBFF35A
:104420006F8F01F013FABB6818461037BD4680BD88
:10443000840D00205C0D00201C0D0020640D002068
:104440008C08002088080020700D00206C0D0020D2
:1044500004ED00E080B483B000AF054B1B687B60C7
:104460007B6818460C37BD465DF8047B704700BF7B
:10447000600D002080B582B000AF01F095FA0023F6
:104480007B60044B1B683B603B6818460837BD46A1
:1044900080BD00BF600D002080B586B000AF002356
:1044A0007B614F4B1B68002B40F090804D4B1B688D
:1044B00001333B614B4A3B6913603B69002B21D1BF
:1044C000494B1B681B68002B0BD04FF0500383F344
:1044D0001188BFF36F8FBFF34F8F3B6000BF00BFEA
:1044E000FDE7414B1B68FB60404B1B683E4A136075
:1044F0003E4AFB6813603E4B1B6801333C4A136025
:1045000000F0E2FA3B4B1B683A699A4249D3364BBA
:104510001B681B68002B04D1364B4FF0FF321A602A
:104520003FE0314B1B68DB68DB68BB60BB685B68E6
:104530007B603A697B689A4203D22E4A7B6813609B
:104540002FE0BB6804331846FEF716FBBB689B6A76
:10455000002B04D0BB6818331846FEF70DFBBB6870
:10456000DA6A254B1B689A4203D9BB68DB6A224A88
:104570001360BB68DA6A13469B0013449B001F4A12
:104580001A44BB68043319461046FEF798FABB6814
:10459000DA6A1B4B1B68DB6A9A42B8D301237B6142
:1045A000B5E7174B1B68DA6A144913469B0013449E
:1045B0009B000B441B68012B01D901237B61114B2C
:1045C0001B68002B07D001237B6104E00E4B1B68A6
:1045D00001330D4A13607B6918461837BD4680BD0C
:1045E000840D0020600D0020140D0020180D002007
:1045F000740D00207C0D0020640D00208C0800202C
:1046000088080020700D00206C0D002080B485B05B
:1046100000AF2B4B1B68002B03D02A4B01221A60E2
:1046200047E0284B00221A60274B1B68FB6011E013
:10463000FB68002B0BD14FF0500383F31188BFF3BD
:104640006F8FBFF34F8F7B6000BF00BFFDE7FB683C
:10465000013BFB601D49FA6813469B0013449B0015
:104660000B441B68002BE3D0FA6813469B001344ED
:104670009B00164A1344BB60BB685B685A68BB6802
:104680005A60BB685A68BB6808339A4204D1BB6859
:104690005B685A68BB685A60BB685B68DB680C4A39
:1046A0001360094AFB681360094B1B685433094ABD
:1046B000136000BF1437BD465DF8047B704700BF30
:1046C000840D0020700D0020640D00208C08002057
:1046D000880800201C00002080B584B000AF7860FE
:1046E00039607B68002B0BD14FF0500383F31188A6
:1046F000BFF36F8FBFF34F8FFB6000BF00BFFDE7BD
:10470000074B1B68183319467868FEF7FCF901213E
:10471000386800F087FB00BF1037BD4680BD00BF82
:104720008808002080B586B000AFF860B9607A6074
:10473000FB68002B0BD14FF0500383F31188BFF3BC
:104740006F8FBFF34F8F7B6100BF00BFFDE70A4B48
:104750001B6818331946F868FEF7B1F97B68002B1F
:1047600002D04FF0FF33BB607968B86800F05AFBA5
:1047700000BF1837BD4680BD8808002080B586B0D0
:1047800000AF78607B68DB68DB683B613B69002BCE
:104790000BD14FF0500383F31188BFF36F8FBFF33A
:1047A0004F8FFB6000BF00BFFDE73B691833184621
:1047B000FEF7E2F91D4B1B68002B1DD13B6904334A
:1047C0001846FEF7D9F93B69DA6A194B1B689A4219
:1047D00003D93B69DB6A164A13603B69DA6A134600
:1047E0009B0013449B00134A1A443B690433194647
:1047F0001046FEF764F905E03B69183319460E4888
:10480000FEF75DF93B69DA6A0C4B1B68DB6A9A427A
:1048100005D901237B610A4B01221A6001E00023C4
:104820007B617B6918461837BD4680BD840D00202A
:10483000640D00208C0800201C0D0020880800203A
:10484000700D002080B483B000AF7860064B1A680A
:104850007B681A60054B1A687B685A6000BF0C378A
:10486000BD465DF8047B7047740D0020600D00208C
:1048700080B588B000AF786039607B68002B0BD1C1
:104880004FF0500383F31188BFF36F8FBFF34F8F47
:104890003B6100BF00BFFDE73B68002B0BD14FF031
:1048A000500383F31188BFF36F8FBFF34F8FFB600B
:1048B00000BF00BFFDE700F097FF1D4B1B68BB6109
:1048C0007B685B68BA69D31A7B613B681B68B3F18C
:1048D000FF3F02D10023FB6123E07B681A68154B80
:1048E0001B689A4207D07B685B68BA699A4202D318
:1048F0000123FB6115E03B681B687A699A420BD281
:104900003B681A687B69D21A3B681A607868FFF7BF
:1049100099FF0023FB6104E03B6800221A60012339
:10492000FB6100F093FFFB6918462037BD4680BD50
:10493000600D0020740D002080B400AF034B0122F5
:104940001A6000BFBD465DF8047B7047700D002003
:1049500080B582B000AF786000F052F8064B1B685B
:10496000012BF9D9054B4FF080521A60BFF34F8FDE
:10497000BFF36F8FF0E700BF8C08002004ED00E06C
:1049800080B582B000AF00237B600CE07A681346EC
:104990009B0013449B00124A13441846FEF762F82A
:1049A0007B6801337B607B68372BEFD90D48FEF7BE
:1049B00059F80D48FEF756F80C48FEF753F80C4826
:1049C000FEF750F80B48FEF74DF80B4B054A1A60FE
:1049D0000A4B054A1A6000BF0837BD4680BD00BFBC
:1049E0008C080020EC0C0020000D00201C0D002085
:1049F000300D0020480D0020140D0020180D00205F
:104A000080B582B000AF19E000F0EEFE104BDB681D
:104A1000DB687B607B6804331846FEF7ADF80D4B0E
:104A20001B68013B0B4A13600B4B1B68013B0A4A96
:104A3000136000F00BFF786800F010F8064B1B685D
:104A4000002BE1D100BF00BF0837BD4680BD00BFCD
:104A5000300D00205C0D0020440D002080B584B096
:104A600000AF78607B685433184601F0DDFB7B684B
:104A700093F8A530002B08D17B681B6B184601F01A
:104A8000A3F8786801F0A0F819E07B6893F8A530E6
:104A9000012B03D1786801F097F810E07B6893F858
:104AA000A530022B0BD04FF0500383F31188BFF3D6
:104AB0006F8FBFF34F8FFB6000BF00BFFDE700BFEC
:104AC0001037BD4680BD000080B483B000AF0C4BF2
:104AD0001B681B68002B04D10A4B4FF0FF321A6091
:104AE00008E0074B1B68DB68DB687B607B685B6802
:104AF000044A136000BF0C37BD465DF8047B704765
:104B0000140D00207C0D002080B483B000AF0B4B4F
:104B10001B68002B02D101237B6008E0084B1B6857
:104B2000002B02D102237B6001E000237B607B68C5
:104B300018460C37BD465DF8047B7047680D0020B1
:104B4000840D002080B584B000AF78607B68BB60C6
:104B50000023FB607B68002B51D0BB68DA6A2A4BCC
:104B60001B68DB6A9A4241D2BB689B69002B06DB5B
:104B7000254B1B68DB6AC3F13802BB689A61BB68CE
:104B80005969BB68DA6A13469B0013449B001F4AAD
:104B90001344994222D1BB6804331846FDF7ECFF59
:104BA000194B1B68DA6ABB68DA62BB68DA6A184BB1
:104BB0001B689A4203D9BB68DB6A154A1360BB685D
:104BC000DA6A13469B0013449B00104A1A44BB68E0
:104BD000043319461046FDF772FF04E00A4B1B68C8
:104BE000DA6ABB68DA620123FB6008E0BB68DA6C52
:104BF000054B1B68DB6A9A4201D20123FB60FB680C
:104C000018461037BD4680BD880800208C0800205B
:104C1000640D002080B586B000AF78607B683B6192
:104C200000237B617B68002B58D02F4B1B683A69AF
:104C30009A420BD04FF0500383F31188BFF36F8F6C
:104C4000BFF34F8FFB6000BF00BFFDE73B691B6DEB
:104C5000002B0BD14FF0500383F31188BFF36F8FFC
:104C6000BFF34F8FBB6000BF00BFFDE73B691B6D0B
:104C70005A1E3B691A653B69DA6A3B69DB6C9A42EA
:104C80002CD03B691B6D002B28D13B69043318469F
:104C9000FDF772FF3B69DA6C3B69DA623B69DB6AFC
:104CA000C3F138023B699A613B69DA6A0F4B1B68B2
:104CB0009A4203D93B69DB6A0C4A13603B69DA6AA2
:104CC00013469B0013449B00094A1A443B69043372
:104CD00019461046FDF7F3FE01237B617B691846F8
:104CE0001837BD4680BD00BF88080020640D002035
:104CF0008C08002080B588B000AF786039607B6890
:104D0000BB6101237B617B68002B6CD0BB691B6D91
:104D1000002B0BD14FF0500383F31188BFF36F8F3B
:104D2000BFF34F8FFB6000BF00BFFDE7BB69DB6CCB
:104D30003A689A4202D93B68FB6102E0BB69DB6CCE
:104D4000FB61BB69DB6AFA699A424CD0BB691B6D97
:104D50007A699A4247D1264B1B68BA699A420BD1AD
:104D60004FF0500383F31188BFF36F8FBFF34F8F62
:104D7000BB6000BF00BFFDE7BB69DB6A3B61BB698D
:104D8000FA69DA62BB699B69002B04DBFB69C3F13A
:104D90003802BB699A61BB6959693A6913469B003D
:104DA00013449B00134A134499421CD1BB6904333A
:104DB0001846FDF7E1FEBB69DA6A0F4B1B689A42A1
:104DC00003D9BB69DB6A0C4A1360BB69DA6A134614
:104DD0009B0013449B00074A1A44BB6904331946DD
:104DE0001046FDF76CFE00BF2037BD4680BD00BFFA
:104DF000880800208C080020640D002080B400AFDB
:104E0000074B1B68002B04D0054B1B681A6D013241
:104E10001A65034B1B681846BD465DF8047B704756
:104E20008808002080B584B000AF78603960214BDD
:104E30001B68FB60204B1B6804331846FDF79CFE83
:104E40007B68B3F1FF3F0AD13B68002B07D01A4BB8
:104E50001B68043319461948FDF731FE26E0FA684D
:104E60007B681344BB60144B1B68BA685A60BA680D
:104E7000FB689A4209D2124B1A680F4B1B68043325
:104E800019461046FDF73FFE10E00E4B1A680A4B1C
:104E90001B68043319461046FDF735FE0A4B1B68A4
:104EA000BA689A4202D2084ABB68136000BF103742
:104EB000BD4680BD600D002088080020480D002000
:104EC000180D0020140D00207C0D002080B58AB044
:104ED00004AF00237B6100F013FB1D4B1B68002B0C
:104EE00021D00023FB600023BB603A1D07F10801BD
:104EF00007F10C031846FDF79BFD7968BB68FA685B
:104F0000029201930223009300230A46114912489A
:104F1000FEF788FE0346114A1360104B1B68002BF6
:104F200001D001237B617B69002B0BD14FF0500333
:104F300083F31188BFF36F8FBFF34F8F3B6100BFC7
:104F400000BFFDE77B6918461837BD4680BD00BF2E
:104F5000B80D0020E068000899500008BC0D002042
:104F600080B58AB000AFF860B9607A603B6000231A
:104F70007B62FB68002B0BD14FF0500383F3118849
:104F8000BFF36F8FBFF34F8F3B6200BF00BFFDE7E2
:104F9000194B1B68002B2AD0BB683B617B687B6187
:104FA000FB68BB61BB68052B18DCFFF7ADFD034652
:104FB000022B09D1104B186807F1100100233A6B3E
:104FC000FDF7B8FF786212E00B4B186807F110018B
:104FD00000230022FDF7AEFF786208E0064B186858
:104FE00007F1100100233A68FEF7A6F878627B6AA1
:104FF00018462837BD4680BDB80D002080B588B062
:1050000002AF78603960234B1B68DB68DB687B612B
:105010007B6904331846FDF7AFFD7B6993F82830B0
:1050200003F00403002B23D07B699A697B68D118B5
:105030007B683A68786900F0D5F80346002B20D0E9
:105040000023009300237A6800217869FFF788FF26
:1050500038613B69002B14D14FF0500383F3118862
:10506000BFF36F8FBFF34F8FFB6000BF00BFFDE743
:105070007B6993F8283023F00103DAB27B6983F867
:1050800028207B691B6A7869984700BF1837BD469E
:1050900080BD00BFB00D002080B584B000AF786047
:1050A00007F10803184600F059F8F860BB68194684
:1050B000F86800F005F800F0D7F800BFF0E700004E
:1050C00080B584B000AF78603960FFF717F907F159
:1050D0000803184600F066F8F860BB68002B30D172
:1050E0003B68002B0AD17A68FB689A4206D8FFF722
:1050F00013F9F9687868FFF781FF24E03B68002B1B
:1051000008D0134B1B681B68002B01D1012300E062
:1051100000233B600F4B18687A68FB68D31A3A6823
:105120001946FEF74BFDFFF7F7F80346002B0AD1AF
:10513000094B4FF080521A60BFF34F8FBFF36F8F50
:1051400001E0FFF7E9F800BF1037BD4680BD00BFA2
:10515000B40D0020B80D002004ED00E080B485B04F
:1051600000AF78600E4B1B681B68002B01D1012239
:1051700000E000227B681A607B681B68002B05D169
:10518000074B1B68DB681B68FB6001E00023FB60CA
:10519000FB6818461437BD465DF8047B704700BFB6
:1051A000B00D002080B584B000AF7860FFF752F9F1
:1051B000F8600B4B1B68FA689A4205D200F03AF986
:1051C0007B6801221A6002E07B6800221A60044AB0
:1051D000FB681360FB6818461037BD4680BD00BFF2
:1051E000C00D002080B586B000AFF860B9607A606D
:1051F0003B6000237B61FB68BA685A60FB68FA6811
:105200001A61BA687B689A4212D87A683B68D21AE7
:10521000FB689B699A4202D301237B611BE0104B20
:105220001A68FB68043319461046FDF76CFC12E05F
:105230007A683B689A4206D2BA683B689A4202D3BF
:1052400001237B6107E0074B1A68FB6804331946AA
:105250001046FDF758FC7B6918461837BD4680BDDF
:10526000B40D0020B00D002080B58EB002AFCEE0AE
:105270007B68002B19DA3B1D0433FB62FB6A002BB1
:105280000BD14FF0500383F31188BFF36F8FBFF33F
:105290004F8FFB6100BF00BFFDE7FB6A1B68FA6A26
:1052A0005068FA6A9268114698477B68002BC0F2F2
:1052B000AE80FB68BB62BB6A5B69002B04D0BB6A33
:1052C00004331846FDF758FC3B461846FFF76AFFC3
:1052D00078627B68092B00F2978001A252F823F0D4
:1052E0000953000809530008095300087F530008B8
:1052F00093530008DF5300080953000809530008BE
:105300007F53000893530008BB6A93F8283043F09A
:105310000103DAB2BB6A83F82820BA68BB6A9B69CA
:10532000D118BB687A6AB86AFFF75CFF0346002BA6
:105330006CD0BB6A1B6AB86A9847BB6A93F828307E
:1053400003F00403002B61D0BA68BB6A9B691A445E
:105350000023009300230021B86AFFF701FE3862A2
:105360003B6A002B52D14FF0500383F31188BFF3F7
:105370006F8FBFF34F8FBB6100BF00BFFDE7BB6AFC
:1053800093F8283023F00103DAB2BB6A83F82820AF
:105390003DE0BB6A93F8283043F00103DAB2BB6A00
:1053A00083F82820BA68BB6A9A61BB6A9B69002BA4
:1053B0000BD14FF0500383F31188BFF36F8FBFF30E
:1053C0004F8F7B6100BF00BFFDE7BB6A9A697B6AB4
:1053D000D1187B6A7A6AB86AFFF704FF17E0BB6AE4
:1053E00093F8283003F00203002B03D1B86A00F0D1
:1053F000EBFB0CE0BB6A93F8283023F00103DAB230
:10540000BB6A83F8282002E000BF00E000BF084B21
:105410001B68391D00221846FDF7BCFF0346002B10
:105420007FF426AF00BF00BF3037BD4680BD00BF50
:10543000B80D002080B588B002AF49E02E4B1B6844
:10544000DB681B683B612C4B1B68DB68DB68FB601F
:10545000FB6804331846FDF78FFBFB681B6AF8688E
:105460009847FB6893F8283003F00403002B2FD0F3
:10547000FB689B693A691344BB60BA683B699A420E
:105480000ED9FB68BA685A60FB68FA681A611A4B51
:105490001A68FB68043319461046FDF734FB17E021
:1054A0000023009300233A690021F868FFF758FDB4
:1054B00078607B68002B0BD14FF0500383F3118889
:1054C000BFF36F8FBFF34F8F3B6000BF00BFFDE79F
:1054D000094B1B681B68002BB0D1074B1B687B6115
:1054E000064B1B68044A1360044A7B69136000BFC3
:1054F0001837BD4680BD00BFB00D0020B40D0020A0
:1055000080B582B002AF00F06FF9154B1B68002B1D
:1055100020D11448FDF7A6FA1348FDF7A3FA134B60
:10552000104A1A60124B104A1A6000230093114B64
:10553000114A10210A20FDF7B3FB0346084A136005
:10554000074B1B68002B05D0054B1B680B49184601
:10555000FEF7E0FA00F07AF900BFBD4680BD00BF5B
:10556000B80D0020880D00209C0D0020B00D0020FB
:10557000B40D0020640E0020C40D0020E86800086F
:1055800080B485B000AFF860B9607A60FB68043B16
:10559000FB60FB684FF080721A60FB68043BFB60A5
:1055A000BB6823F00102FB681A60FB68043BFB60E8
:1055B0000C4AFB681A60FB68143BFB607A68FB6866
:1055C0001A60FB68043BFB60FB686FF002021A6024
:1055D000FB68203BFB60FB6818461437BD465DF84E
:1055E000047B7047E955000880B485B000AF002304
:1055F0007B60134B1B68B3F1FF3F0BD04FF05003A0
:1056000083F31188BFF36F8FBFF34F8FFB6000BF31
:1056100000BFFDE74FF0500383F31188BFF36F8F96
:10562000BFF34F8FBB6000BF00BF7B68002BFCD077
:1056300000BF00BF1437BD465DF8047B704700BF54
:105640000C0000200000000000000000000000002E
:10565000074B19680868B0E8F04F80F30988BFF37A
:105660006F8F4FF0000080F311887047AFF3008018
:105670008808002000BF00BF08480068006880F369
:1056800008884FF0000080F3148862B661B6BFF35B
:105690004F8FBFF36F8F00DF00BF00BF08ED00E04A
:1056A00080B586B000AF474B1B68474A93420BD189
:1056B0004FF0500383F31188BFF36F8FBFF34F8F09
:1056C0003B6100BF00BFFDE73E4B1B683F4A934272
:1056D0000BD14FF0500383F31188BFF36F8FBFF3EB
:1056E0004F8FFB6000BF00BFFDE7394B7B617B69DB
:1056F0001B78DBB27B607B69FF221A707B691B78A9
:10570000DBB2FB70FB78DBB203F05003DAB2314B53
:105710001A70314B07221A6009E02F4B1B68013BBE
:105720002D4A1360FB78DBB25B00DBB2FB70FB78C9
:10573000DBB203F08003802BEFD0274B1B68C3F153
:105740000703042B0BD04FF0500383F31188BFF3F2
:105750006F8FBFF34F8FBB6000BF00BFFDE71E4BD5
:105760001B681B021C4A13601B4B1B6803F4E0639D
:10577000194A13607B68DAB27B691A70174B1B6891
:10578000164A43F470031360144B1B68134A43F02A
:105790007043136000F0DAF8114B00221A6000F039
:1057A000F9F8104B1B680F4A43F040431360FFF7B2
:1057B00063FFFEF72BFFFFF717FF0023184618378C
:1057C000BD4680BD00ED00E071C20F4170C20F41C7
:1057D00000E400E0B40E0020B80E002020ED00E050
:1057E0000C00002034EF00E080B483B000AF4FF035
:1057F000500383F31188BFF36F8FBFF34F8F7B602C
:1058000000BF104B1B6801330E4A13600D4B1B6821
:10581000012B10D10C4B1B68DBB2002B0BD04FF0CF
:10582000500383F31188BFF36F8FBFF34F8F3B603B
:1058300000BF00BFFDE700BF0C37BD465DF8047B2D
:10584000704700BF0C00002004ED00E080B483B07E
:1058500000AF124B1B68002B0BD14FF0500383F3AA
:105860001188BFF36F8FBFF34F8F7B6000BF00BF06
:10587000FDE70A4B1B68013B084A1360074B1B6896
:10588000002B05D100233B603B6883F3118800BFE8
:1058900000BF0C37BD465DF8047B70470C0000204C
:1058A000EFF30980BFF36F8F154B1A681EF0100FCE
:1058B00008BF20ED108A20E9F04F10602DE90900A3
:1058C0004FF0500080F31188BFF34F8FBFF36F8FFD
:1058D000FEF79CFE4FF0000080F3118809BC1968A8
:1058E0000868B0E8F04F1EF0100F08BFB0EC108A47
:1058F00080F30988BFF36F8F704700BFAFF300805C
:105900008808002000BF00BF80B582B000AF4FF014
:10591000500383F31188BFF36F8FBFF34F8F7B600A
:1059200000BFFEF7B9FD0346002B03D0064B4FF036
:1059300080521A6000233B603B6883F3118800BFEC
:1059400000BF0837BD4680BD04ED00E080B400AF65
:105950000B4B00221A600B4B00221A600A4B1B688B
:105960000A4AA2FB03239B09094A013B1360044B2B
:1059700007221A6000BFBD465DF8047B704700BF78
:1059800010E000E018E000E000000020D34D6210BD
:1059900014E000E0DFF80C00016841F470010160E0
:1059A000704700BF88ED00E080B485B000AFEFF332
:1059B0000583FB60FB680F2B15D9184AFB6813445D
:1059C0001B78FB72164B1B78FA7A9A420BD24FF077
:1059D000500383F31188BFF36F8FBFF34F8F7B604A
:1059E00000BF00BFFDE70F4B1B6803F4E0620E4BE6
:1059F0001B689A420BD94FF0500383F31188BFF311
:105A00006F8FBFF34F8F3B6000BF00BFFDE700BF4C
:105A10001437BD465DF8047B704700BFF0E300E03B
:105A2000B40E00200CED00E0B80E002080B58AB066
:105A300000AF78600023FB61FEF760FC5C4B1B68E5
:105A4000002B01D100F024F95A4B1A687B681340EF
:105A5000002B40F095807B68002B1ED008227B68CD
:105A600013447B607B6803F00703002B15D07B6831
:105A700023F0070308337B607B6803F00703002BE8
:105A80000BD04FF0500383F31188BFF36F8FBFF338
:105A90004F8F7B6100BF00BFFDE77B68002B6FD09D
:105AA000454B1B687A689A426AD8444B3B62434B29
:105AB0001B687B6204E07B6A3B627B6A1B687B62DB
:105AC0007B6A5B687A689A4203D97B6A1B68002B01
:105AD000F1D1374B1B687A6A9A4251D03B6A1B68F6
